{"contracts/WaultLedger.sol":{"WaultLedger":{"abi":[{"anonymous":false,"inputs":[{"indexed":true,"internalType":"address","name":"user","type":"address"},{"indexed":false,"internalType":"string","name":"eventType","type":"string"},{"indexed":false,"internalType":"bytes32","name":"dataHash","type":"bytes32"},{"indexed":false,"internalType":"uint256","name":"timestamp","type":"uint256"}],"name":"EventLogged","type":"event"},{"inputs":[{"internalType":"address","name":"user","type":"address"}],"name":"getEventCount","outputs":[{"internalType":"uint256","name":"","type":"uint256"}],"stateMutability":"view","type":"function"},{"inputs":[{"internalType":"address","name":"user","type":"address"}],"name":"getEvents","outputs":[{"components":[{"internalType":"string","name":"eventType","type":"string"},{"internalType":"bytes32","name":"dataHash","type":"bytes32"},{"internalType":"uint256","name":"timestamp","type":"uint256"},{"internalType":"address","name":"caller","type":"address"}],"internalType":"struct WaultLedger.Event[]","name":"","type":"tuple[]"}],"stateMutability":"view","type":"function"},{"inputs":[{"internalType":"string","name":"eventType","type":"string"},{"internalType":"string","name":"dataHashStr","type":"string"}],"name":"logEvent","outputs":[],"stateMutability":"nonpayable","type":"function"}],"evm":{"bytecode":{"linkReferences":{},"object":"608060405234801561001057600080fd5b50610a56806100206000396000f3fe608060405234801561001057600080fd5b50600436106100415760003560e01c80631e5bc72814610046578063a4c8b6e31461005b578063f90d177614610084575b600080fd5b61005961005436600461063d565b6100bb565b005b61006e6100693660046106a9565b610207565b60405161007b91906106d2565b60405180910390f35b6100ad6100923660046106a9565b6001600160a01b031660009081526020819052604090205490565b60405190815260200161007b565b60006100fc83838080601f01602080910402602001604051908101604052809392919081815260200183838082843760009201919091525061033992505050565b3360009081526020818152604091829020825160a0601f8a0184900490930281018301909352608083018881529394509282918990899081908501838280828437600092018290525093855250505060208083018690524260408401523360609093019290925283546001810185559381522081519192600402019081906101849082610843565b50602082015160018201556040808301516002830155606090920151600390910180546001600160a01b0319166001600160a01b039092169190911790555133907f58c0534367a48835919a0cb7ddb9c773bf1c206dcb7e7b4d13617548af764d28906101f8908890889086904290610903565b60405180910390a25050505050565b6001600160a01b038116600090815260208181526040808320805482518185028101850190935280835260609492939192909184015b8282101561032e5783829060005260206000209060040201604051806080016040529081600082018054610270906107ba565b80601f016020809104026020016040519081016040528092919081815260200182805461029c906107ba565b80156102e95780601f106102be576101008083540402835291602001916102e9565b820191906000526020600020905b8154815290600101906020018083116102cc57829003601f168201915b5050509183525050600182810154602080840191909152600284015460408401526003909301546001600160a01b03166060909201919091529183529201910161023d565b505050509050919050565b60008082905060008151604214801561037757508160008151811061036057610360610943565b6020910101516001600160f81b031916600360fc1b145b80156103d757508160018151811061039157610391610943565b6020910101516001600160f81b031916600f60fb1b14806103d75750816001815181106103c0576103c0610943565b6020910101516001600160f81b031916600b60fb1b145b156103e0575060025b8082516103ed919061096f565b6040146104375760405162461bcd60e51b8152602060048201526013602482015272092dcecc2d8d2c840d0c2e6d040d8cadccee8d606b1b60448201526064015b60405180910390fd5b60408051602080825281830190925260009160208201818036833701905050905060005b60208110156105245760006104a385610475846002610988565b61047f908761099f565b8151811061048f5761048f610943565b01602001516001600160f81b031916610531565b905060006104cb866104b6856002610988565b6104c0908861099f565b61047f90600161099f565b9050806104d98360106109b2565b6104e391906109d5565b60f81b8484815181106104f8576104f8610943565b60200101906001600160f81b031916908160001a9053505050808061051c906109ee565b91505061045b565b5060200151949350505050565b600060f882901c6030811080159061054d575060398160ff1611155b156105645761055d603082610a07565b9392505050565b60418160ff161015801561057c575060468160ff1611155b1561058c5761055d603782610a07565b60618160ff16101580156105a4575060668160ff1611155b156105b45761055d605782610a07565b60405162461bcd60e51b815260206004820152601560248201527424b73b30b634b2103432bc1031b430b930b1ba32b960591b604482015260640161042e565b60008083601f84011261060657600080fd5b50813567ffffffffffffffff81111561061e57600080fd5b60208301915083602082850101111561063657600080fd5b9250929050565b6000806000806040858703121561065357600080fd5b843567ffffffffffffffff8082111561066b57600080fd5b610677888389016105f4565b9096509450602087013591508082111561069057600080fd5b5061069d878288016105f4565b95989497509550505050565b6000602082840312156106bb57600080fd5b81356001600160a01b038116811461055d57600080fd5b60006020808301818452808551808352604092508286019150828160051b8701018488016000805b8481101561079557603f198a8503018652825160808151818752805180838901528592505b8083101561073d578183018c015188840160a00152918b019161071f565b60a092508583828a0101528b8401518c8901528a8401518b89015260609150818401519350610776828901856001600160a01b03169052565b988b0198601f01601f19169690960101945050918701916001016106fa565b50919998505050505050505050565b634e487b7160e01b600052604160045260246000fd5b600181811c908216806107ce57607f821691505b6020821081036107ee57634e487b7160e01b600052602260045260246000fd5b50919050565b601f82111561083e57600081815260208120601f850160051c8101602086101561081b5750805b601f850160051c820191505b8181101561083a57828155600101610827565b5050505b505050565b815167ffffffffffffffff81111561085d5761085d6107a4565b6108718161086b84546107ba565b846107f4565b602080601f8311600181146108a6576000841561088e5750858301515b600019600386901b1c1916600185901b17855561083a565b600085815260208120601f198616915b828110156108d5578886015182559484019460019091019084016108b6565b50858210156108f35787850151600019600388901b60f8161c191681555b5050505050600190811b01905550565b606081528360608201528385608083013760006080858301015260006080601f19601f870116830101905083602083015282604083015295945050505050565b634e487b7160e01b600052603260045260246000fd5b634e487b7160e01b600052601160045260246000fd5b8181038181111561098257610982610959565b92915050565b808202811582820484141761098257610982610959565b8082018082111561098257610982610959565b60ff81811683821602908116908181146109ce576109ce610959565b5092915050565b60ff818116838216019081111561098257610982610959565b600060018201610a0057610a00610959565b5060010190565b60ff82811682821603908111156109825761098261095956fea2646970667358221220347b2c8941411a83dc028f4158f9df1c3907ef0101321328c0da8139ceec03f064736f6c63430008140033","opcodes":"PUSH1 0x80 PUSH1 0x40 MSTORE CALLVALUE DUP1 ISZERO PUSH2 0x10 JUMPI PUSH1 0x0 DUP1 REVERT JUMPDEST POP PUSH2 0xA56 DUP1 PUSH2 0x20 PUSH1 0x0 CODECOPY PUSH1 0x0 RETURN INVALID PUSH1 0x80 PUSH1 0x40 MSTORE CALLVALUE DUP1 ISZERO PUSH2 0x10 JUMPI PUSH1 0x0 DUP1 REVERT JUMPDEST POP PUSH1 0x4 CALLDATASIZE LT PUSH2 0x41 JUMPI PUSH1 0x0 CALLDATALOAD PUSH1 0xE0 SHR DUP1 PUSH4 0x1E5BC728 EQ PUSH2 0x46 JUMPI DUP1 PUSH4 0xA4C8B6E3 EQ PUSH2 0x5B JUMPI DUP1 PUSH4 0xF90D1776 EQ PUSH2 0x84 JUMPI JUMPDEST PUSH1 0x0 DUP1 REVERT JUMPDEST PUSH2 0x59 PUSH2 0x54 CALLDATASIZE PUSH1 0x4 PUSH2 0x63D JUMP JUMPDEST PUSH2 0xBB JUMP JUMPDEST STOP JUMPDEST PUSH2 0x6E PUSH2 0x69 CALLDATASIZE PUSH1 0x4 PUSH2 0x6A9 JUMP JUMPDEST PUSH2 0x207 JUMP JUMPDEST PUSH1 0x40 MLOAD PUSH2 0x7B SWAP2 SWAP1 PUSH2 0x6D2 JUMP JUMPDEST PUSH1 0x40 MLOAD DUP1 SWAP2 SUB SWAP1 RETURN JUMPDEST PUSH2 0xAD PUSH2 0x92 CALLDATASIZE PUSH1 0x4 PUSH2 0x6A9 JUMP JUMPDEST PUSH1 0x1 PUSH1 0x1 PUSH1 0xA0 SHL SUB AND PUSH1 0x0 SWAP1 DUP2 MSTORE PUSH1 0x20 DUP2 SWAP1 MSTORE PUSH1 0x40 SWAP1 KECCAK256 SLOAD SWAP1 JUMP JUMPDEST PUSH1 0x40 MLOAD SWAP1 DUP2 MSTORE PUSH1 0x20 ADD PUSH2 0x7B JUMP JUMPDEST PUSH1 0x0 PUSH2 0xFC DUP4 DUP4 DUP1 DUP1 PUSH1 0x1F ADD PUSH1 0x20 DUP1 SWAP2 DIV MUL PUSH1 0x20 ADD PUSH1 0x40 MLOAD SWAP1 DUP2 ADD PUSH1 0x40 MSTORE DUP1 SWAP4 SWAP3 SWAP2 SWAP1 DUP2 DUP2 MSTORE PUSH1 0x20 ADD DUP4 DUP4 DUP1 DUP3 DUP5 CALLDATACOPY PUSH1 0x0 SWAP3 ADD SWAP2 SWAP1 SWAP2 MSTORE POP PUSH2 0x339 SWAP3 POP POP POP JUMP JUMPDEST CALLER PUSH1 0x0 SWAP1 DUP2 MSTORE PUSH1 0x20 DUP2 DUP2 MSTORE PUSH1 0x40 SWAP2 DUP3 SWAP1 KECCAK256 DUP3 MLOAD PUSH1 0xA0 PUSH1 0x1F DUP11 ADD DUP5 SWAP1 DIV SWAP1 SWAP4 MUL DUP2 ADD DUP4 ADD SWAP1 SWAP4 MSTORE PUSH1 0x80 DUP4 ADD DUP9 DUP2 MSTORE SWAP4 SWAP5 POP SWAP3 DUP3 SWAP2 DUP10 SWAP1 DUP10 SWAP1 DUP2 SWAP1 DUP6 ADD DUP4 DUP3 DUP1 DUP3 DUP5 CALLDATACOPY PUSH1 0x0 SWAP3 ADD DUP3 SWAP1 MSTORE POP SWAP4 DUP6 MSTORE POP POP POP PUSH1 0x20 DUP1 DUP4 ADD DUP7 SWAP1 MSTORE TIMESTAMP PUSH1 0x40 DUP5 ADD MSTORE CALLER PUSH1 0x60 SWAP1 SWAP4 ADD SWAP3 SWAP1 SWAP3 MSTORE DUP4 SLOAD PUSH1 0x1 DUP2 ADD DUP6 SSTORE SWAP4 DUP2 MSTORE KECCAK256 DUP2 MLOAD SWAP2 SWAP3 PUSH1 0x4 MUL ADD SWAP1 DUP2 SWAP1 PUSH2 0x184 SWAP1 DUP3 PUSH2 0x843 JUMP JUMPDEST POP PUSH1 0x20 DUP3 ADD MLOAD PUSH1 0x1 DUP3 ADD SSTORE PUSH1 0x40 DUP1 DUP4 ADD MLOAD PUSH1 0x2 DUP4 ADD SSTORE PUSH1 0x60 SWAP1 SWAP3 ADD MLOAD PUSH1 0x3 SWAP1 SWAP2 ADD DUP1 SLOAD PUSH1 0x1 PUSH1 0x1 PUSH1 0xA0 SHL SUB NOT AND PUSH1 0x1 PUSH1 0x1 PUSH1 0xA0 SHL SUB SWAP1 SWAP3 AND SWAP2 SWAP1 SWAP2 OR SWAP1 SSTORE MLOAD CALLER SWAP1 PUSH32 0x58C0534367A48835919A0CB7DDB9C773BF1C206DCB7E7B4D13617548AF764D28 SWAP1 PUSH2 0x1F8 SWAP1 DUP9 SWAP1 DUP9 SWAP1 DUP7 SWAP1 TIMESTAMP SWAP1 PUSH2 0x903 JUMP JUMPDEST PUSH1 0x40 MLOAD DUP1 SWAP2 SUB SWAP1 LOG2 POP POP POP POP POP JUMP JUMPDEST PUSH1 0x1 PUSH1 0x1 PUSH1 0xA0 SHL SUB DUP2 AND PUSH1 0x0 SWAP1 DUP2 MSTORE PUSH1 0x20 DUP2 DUP2 MSTORE PUSH1 0x40 DUP1 DUP4 KECCAK256 DUP1 SLOAD DUP3 MLOAD DUP2 DUP6 MUL DUP2 ADD DUP6 ADD SWAP1 SWAP4 MSTORE DUP1 DUP4 MSTORE PUSH1 0x60 SWAP5 SWAP3 SWAP4 SWAP2 SWAP3 SWAP1 SWAP2 DUP5 ADD JUMPDEST DUP3 DUP3 LT ISZERO PUSH2 0x32E JUMPI DUP4 DUP3 SWAP1 PUSH1 0x0 MSTORE PUSH1 0x20 PUSH1 0x0 KECCAK256 SWAP1 PUSH1 0x4 MUL ADD PUSH1 0x40 MLOAD DUP1 PUSH1 0x80 ADD PUSH1 0x40 MSTORE SWAP1 DUP2 PUSH1 0x0 DUP3 ADD DUP1 SLOAD PUSH2 0x270 SWAP1 PUSH2 0x7BA JUMP JUMPDEST DUP1 PUSH1 0x1F ADD PUSH1 0x20 DUP1 SWAP2 DIV MUL PUSH1 0x20 ADD PUSH1 0x40 MLOAD SWAP1 DUP2 ADD PUSH1 0x40 MSTORE DUP1 SWAP3 SWAP2 SWAP1 DUP2 DUP2 MSTORE PUSH1 0x20 ADD DUP3 DUP1 SLOAD PUSH2 0x29C SWAP1 PUSH2 0x7BA JUMP JUMPDEST DUP1 ISZERO PUSH2 0x2E9 JUMPI DUP1 PUSH1 0x1F LT PUSH2 0x2BE JUMPI PUSH2 0x100 DUP1 DUP4 SLOAD DIV MUL DUP4 MSTORE SWAP2 PUSH1 0x20 ADD SWAP2 PUSH2 0x2E9 JUMP JUMPDEST DUP3 ADD SWAP2 SWAP1 PUSH1 0x0 MSTORE PUSH1 0x20 PUSH1 0x0 KECCAK256 SWAP1 JUMPDEST DUP2 SLOAD DUP2 MSTORE SWAP1 PUSH1 0x1 ADD SWAP1 PUSH1 0x20 ADD DUP1 DUP4 GT PUSH2 0x2CC JUMPI DUP3 SWAP1 SUB PUSH1 0x1F AND DUP3 ADD SWAP2 JUMPDEST POP POP POP SWAP2 DUP4 MSTORE POP POP PUSH1 0x1 DUP3 DUP2 ADD SLOAD PUSH1 0x20 DUP1 DUP5 ADD SWAP2 SWAP1 SWAP2 MSTORE PUSH1 0x2 DUP5 ADD SLOAD PUSH1 0x40 DUP5 ADD MSTORE PUSH1 0x3 SWAP1 SWAP4 ADD SLOAD PUSH1 0x1 PUSH1 0x1 PUSH1 0xA0 SHL SUB AND PUSH1 0x60 SWAP1 SWAP3 ADD SWAP2 SWAP1 SWAP2 MSTORE SWAP2 DUP4 MSTORE SWAP3 ADD SWAP2 ADD PUSH2 0x23D JUMP JUMPDEST POP POP POP POP SWAP1 POP SWAP2 SWAP1 POP JUMP JUMPDEST PUSH1 0x0 DUP1 DUP3 SWAP1 POP PUSH1 0x0 DUP2 MLOAD PUSH1 0x42 EQ DUP1 ISZERO PUSH2 0x377 JUMPI POP DUP2 PUSH1 0x0 DUP2 MLOAD DUP2 LT PUSH2 0x360 JUMPI PUSH2 0x360 PUSH2 0x943 JUMP JUMPDEST PUSH1 0x20 SWAP2 ADD ADD MLOAD PUSH1 0x1 PUSH1 0x1 PUSH1 0xF8 SHL SUB NOT AND PUSH1 0x3 PUSH1 0xFC SHL EQ JUMPDEST DUP1 ISZERO PUSH2 0x3D7 JUMPI POP DUP2 PUSH1 0x1 DUP2 MLOAD DUP2 LT PUSH2 0x391 JUMPI PUSH2 0x391 PUSH2 0x943 JUMP JUMPDEST PUSH1 0x20 SWAP2 ADD ADD MLOAD PUSH1 0x1 PUSH1 0x1 PUSH1 0xF8 SHL SUB NOT AND PUSH1 0xF PUSH1 0xFB SHL EQ DUP1 PUSH2 0x3D7 JUMPI POP DUP2 PUSH1 0x1 DUP2 MLOAD DUP2 LT PUSH2 0x3C0 JUMPI PUSH2 0x3C0 PUSH2 0x943 JUMP JUMPDEST PUSH1 0x20 SWAP2 ADD ADD MLOAD PUSH1 0x1 PUSH1 0x1 PUSH1 0xF8 SHL SUB NOT AND PUSH1 0xB PUSH1 0xFB SHL EQ JUMPDEST ISZERO PUSH2 0x3E0 JUMPI POP PUSH1 0x2 JUMPDEST DUP1 DUP3 MLOAD PUSH2 0x3ED SWAP2 SWAP1 PUSH2 0x96F JUMP JUMPDEST PUSH1 0x40 EQ PUSH2 0x437 JUMPI PUSH1 0x40 MLOAD PUSH3 0x461BCD PUSH1 0xE5 SHL DUP2 MSTORE PUSH1 0x20 PUSH1 0x4 DUP3 ADD MSTORE PUSH1 0x13 PUSH1 0x24 DUP3 ADD MSTORE PUSH19 0x92DCECC2D8D2C840D0C2E6D040D8CADCCEE8D PUSH1 0x6B SHL PUSH1 0x44 DUP3 ADD MSTORE PUSH1 0x64 ADD JUMPDEST PUSH1 0x40 MLOAD DUP1 SWAP2 SUB SWAP1 REVERT JUMPDEST PUSH1 0x40 DUP1 MLOAD PUSH1 0x20 DUP1 DUP3 MSTORE DUP2 DUP4 ADD SWAP1 SWAP3 MSTORE PUSH1 0x0 SWAP2 PUSH1 0x20 DUP3 ADD DUP2 DUP1 CALLDATASIZE DUP4 CALLDATACOPY ADD SWAP1 POP POP SWAP1 POP PUSH1 0x0 JUMPDEST PUSH1 0x20 DUP2 LT ISZERO PUSH2 0x524 JUMPI PUSH1 0x0 PUSH2 0x4A3 DUP6 PUSH2 0x475 DUP5 PUSH1 0x2 PUSH2 0x988 JUMP JUMPDEST PUSH2 0x47F SWAP1 DUP8 PUSH2 0x99F JUMP JUMPDEST DUP2 MLOAD DUP2 LT PUSH2 0x48F JUMPI PUSH2 0x48F PUSH2 0x943 JUMP JUMPDEST ADD PUSH1 0x20 ADD MLOAD PUSH1 0x1 PUSH1 0x1 PUSH1 0xF8 SHL SUB NOT AND PUSH2 0x531 JUMP JUMPDEST SWAP1 POP PUSH1 0x0 PUSH2 0x4CB DUP7 PUSH2 0x4B6 DUP6 PUSH1 0x2 PUSH2 0x988 JUMP JUMPDEST PUSH2 0x4C0 SWAP1 DUP9 PUSH2 0x99F JUMP JUMPDEST PUSH2 0x47F SWAP1 PUSH1 0x1 PUSH2 0x99F JUMP JUMPDEST SWAP1 POP DUP1 PUSH2 0x4D9 DUP4 PUSH1 0x10 PUSH2 0x9B2 JUMP JUMPDEST PUSH2 0x4E3 SWAP2 SWAP1 PUSH2 0x9D5 JUMP JUMPDEST PUSH1 0xF8 SHL DUP5 DUP5 DUP2 MLOAD DUP2 LT PUSH2 0x4F8 JUMPI PUSH2 0x4F8 PUSH2 0x943 JUMP JUMPDEST PUSH1 0x20 ADD ADD SWAP1 PUSH1 0x1 PUSH1 0x1 PUSH1 0xF8 SHL SUB NOT AND SWAP1 DUP2 PUSH1 0x0 BYTE SWAP1 MSTORE8 POP POP POP DUP1 DUP1 PUSH2 0x51C SWAP1 PUSH2 0x9EE JUMP JUMPDEST SWAP2 POP POP PUSH2 0x45B JUMP JUMPDEST POP PUSH1 0x20 ADD MLOAD SWAP5 SWAP4 POP POP POP POP JUMP JUMPDEST PUSH1 0x0 PUSH1 0xF8 DUP3 SWAP1 SHR PUSH1 0x30 DUP2 LT DUP1 ISZERO SWAP1 PUSH2 0x54D JUMPI POP PUSH1 0x39 DUP2 PUSH1 0xFF AND GT ISZERO JUMPDEST ISZERO PUSH2 0x564 JUMPI PUSH2 0x55D PUSH1 0x30 DUP3 PUSH2 0xA07 JUMP JUMPDEST SWAP4 SWAP3 POP POP POP JUMP JUMPDEST PUSH1 0x41 DUP2 PUSH1 0xFF AND LT ISZERO DUP1 ISZERO PUSH2 0x57C JUMPI POP PUSH1 0x46 DUP2 PUSH1 0xFF AND GT ISZERO JUMPDEST ISZERO PUSH2 0x58C JUMPI PUSH2 0x55D PUSH1 0x37 DUP3 PUSH2 0xA07 JUMP JUMPDEST PUSH1 0x61 DUP2 PUSH1 0xFF AND LT ISZERO DUP1 ISZERO PUSH2 0x5A4 JUMPI POP PUSH1 0x66 DUP2 PUSH1 0xFF AND GT ISZERO JUMPDEST ISZERO PUSH2 0x5B4 JUMPI PUSH2 0x55D PUSH1 0x57 DUP3 PUSH2 0xA07 JUMP JUMPDEST PUSH1 0x40 MLOAD PUSH3 0x461BCD PUSH1 0xE5 SHL DUP2 MSTORE PUSH1 0x20 PUSH1 0x4 DUP3 ADD MSTORE PUSH1 0x15 PUSH1 0x24 DUP3 ADD MSTORE PUSH21 0x24B73B30B634B2103432BC1031B430B930B1BA32B9 PUSH1 0x59 SHL PUSH1 0x44 DUP3 ADD MSTORE PUSH1 0x64 ADD PUSH2 0x42E JUMP JUMPDEST PUSH1 0x0 DUP1 DUP4 PUSH1 0x1F DUP5 ADD SLT PUSH2 0x606 JUMPI PUSH1 0x0 DUP1 REVERT JUMPDEST POP DUP2 CALLDATALOAD PUSH8 0xFFFFFFFFFFFFFFFF DUP2 GT ISZERO PUSH2 0x61E JUMPI PUSH1 0x0 DUP1 REVERT JUMPDEST PUSH1 0x20 DUP4 ADD SWAP2 POP DUP4 PUSH1 0x20 DUP3 DUP6 ADD ADD GT ISZERO PUSH2 0x636 JUMPI PUSH1 0x0 DUP1 REVERT JUMPDEST SWAP3 POP SWAP3 SWAP1 POP JUMP JUMPDEST PUSH1 0x0 DUP1 PUSH1 0x0 DUP1 PUSH1 0x40 DUP6 DUP8 SUB SLT ISZERO PUSH2 0x653 JUMPI PUSH1 0x0 DUP1 REVERT JUMPDEST DUP5 CALLDATALOAD PUSH8 0xFFFFFFFFFFFFFFFF DUP1 DUP3 GT ISZERO PUSH2 0x66B JUMPI PUSH1 0x0 DUP1 REVERT JUMPDEST PUSH2 0x677 DUP9 DUP4 DUP10 ADD PUSH2 0x5F4 JUMP JUMPDEST SWAP1 SWAP7 POP SWAP5 POP PUSH1 0x20 DUP8 ADD CALLDATALOAD SWAP2 POP DUP1 DUP3 GT ISZERO PUSH2 0x690 JUMPI PUSH1 0x0 DUP1 REVERT JUMPDEST POP PUSH2 0x69D DUP8 DUP3 DUP9 ADD PUSH2 0x5F4 JUMP JUMPDEST SWAP6 SWAP9 SWAP5 SWAP8 POP SWAP6 POP POP POP POP JUMP JUMPDEST PUSH1 0x0 PUSH1 0x20 DUP3 DUP5 SUB SLT ISZERO PUSH2 0x6BB JUMPI PUSH1 0x0 DUP1 REVERT JUMPDEST DUP2 CALLDATALOAD PUSH1 0x1 PUSH1 0x1 PUSH1 0xA0 SHL SUB DUP2 AND DUP2 EQ PUSH2 0x55D JUMPI PUSH1 0x0 DUP1 REVERT JUMPDEST PUSH1 0x0 PUSH1 0x20 DUP1 DUP4 ADD DUP2 DUP5 MSTORE DUP1 DUP6 MLOAD DUP1 DUP4 MSTORE PUSH1 0x40 SWAP3 POP DUP3 DUP7 ADD SWAP2 POP DUP3 DUP2 PUSH1 0x5 SHL DUP8 ADD ADD DUP5 DUP9 ADD PUSH1 0x0 DUP1 JUMPDEST DUP5 DUP2 LT ISZERO PUSH2 0x795 JUMPI PUSH1 0x3F NOT DUP11 DUP6 SUB ADD DUP7 MSTORE DUP3 MLOAD PUSH1 0x80 DUP2 MLOAD DUP2 DUP8 MSTORE DUP1 MLOAD DUP1 DUP4 DUP10 ADD MSTORE DUP6 SWAP3 POP JUMPDEST DUP1 DUP4 LT ISZERO PUSH2 0x73D JUMPI DUP2 DUP4 ADD DUP13 ADD MLOAD DUP9 DUP5 ADD PUSH1 0xA0 ADD MSTORE SWAP2 DUP12 ADD SWAP2 PUSH2 0x71F JUMP JUMPDEST PUSH1 0xA0 SWAP3 POP DUP6 DUP4 DUP3 DUP11 ADD ADD MSTORE DUP12 DUP5 ADD MLOAD DUP13 DUP10 ADD MSTORE DUP11 DUP5 ADD MLOAD DUP12 DUP10 ADD MSTORE PUSH1 0x60 SWAP2 POP DUP2 DUP5 ADD MLOAD SWAP4 POP PUSH2 0x776 DUP3 DUP10 ADD DUP6 PUSH1 0x1 PUSH1 0x1 PUSH1 0xA0 SHL SUB AND SWAP1 MSTORE JUMP JUMPDEST SWAP9 DUP12 ADD SWAP9 PUSH1 0x1F ADD PUSH1 0x1F NOT AND SWAP7 SWAP1 SWAP7 ADD ADD SWAP5 POP POP SWAP2 DUP8 ADD SWAP2 PUSH1 0x1 ADD PUSH2 0x6FA JUMP JUMPDEST POP SWAP2 SWAP10 SWAP9 POP POP POP POP POP POP POP POP POP JUMP JUMPDEST PUSH4 0x4E487B71 PUSH1 0xE0 SHL PUSH1 0x0 MSTORE PUSH1 0x41 PUSH1 0x4 MSTORE PUSH1 0x24 PUSH1 0x0 REVERT JUMPDEST PUSH1 0x1 DUP2 DUP2 SHR SWAP1 DUP3 AND DUP1 PUSH2 0x7CE JUMPI PUSH1 0x7F DUP3 AND SWAP2 POP JUMPDEST PUSH1 0x20 DUP3 LT DUP2 SUB PUSH2 0x7EE JUMPI PUSH4 0x4E487B71 PUSH1 0xE0 SHL PUSH1 0x0 MSTORE PUSH1 0x22 PUSH1 0x4 MSTORE PUSH1 0x24 PUSH1 0x0 REVERT JUMPDEST POP SWAP2 SWAP1 POP JUMP JUMPDEST PUSH1 0x1F DUP3 GT ISZERO PUSH2 0x83E JUMPI PUSH1 0x0 DUP2 DUP2 MSTORE PUSH1 0x20 DUP2 KECCAK256 PUSH1 0x1F DUP6 ADD PUSH1 0x5 SHR DUP2 ADD PUSH1 0x20 DUP7 LT ISZERO PUSH2 0x81B JUMPI POP DUP1 JUMPDEST PUSH1 0x1F DUP6 ADD PUSH1 0x5 SHR DUP3 ADD SWAP2 POP JUMPDEST DUP2 DUP2 LT ISZERO PUSH2 0x83A JUMPI DUP3 DUP2 SSTORE PUSH1 0x1 ADD PUSH2 0x827 JUMP JUMPDEST POP POP POP JUMPDEST POP POP POP JUMP JUMPDEST DUP2 MLOAD PUSH8 0xFFFFFFFFFFFFFFFF DUP2 GT ISZERO PUSH2 0x85D JUMPI PUSH2 0x85D PUSH2 0x7A4 JUMP JUMPDEST PUSH2 0x871 DUP2 PUSH2 0x86B DUP5 SLOAD PUSH2 0x7BA JUMP JUMPDEST DUP5 PUSH2 0x7F4 JUMP JUMPDEST PUSH1 0x20 DUP1 PUSH1 0x1F DUP4 GT PUSH1 0x1 DUP2 EQ PUSH2 0x8A6 JUMPI PUSH1 0x0 DUP5 ISZERO PUSH2 0x88E JUMPI POP DUP6 DUP4 ADD MLOAD JUMPDEST PUSH1 0x0 NOT PUSH1 0x3 DUP7 SWAP1 SHL SHR NOT AND PUSH1 0x1 DUP6 SWAP1 SHL OR DUP6 SSTORE PUSH2 0x83A JUMP JUMPDEST PUSH1 0x0 DUP6 DUP2 MSTORE PUSH1 0x20 DUP2 KECCAK256 PUSH1 0x1F NOT DUP7 AND SWAP2 JUMPDEST DUP3 DUP2 LT ISZERO PUSH2 0x8D5 JUMPI DUP9 DUP7 ADD MLOAD DUP3 SSTORE SWAP5 DUP5 ADD SWAP5 PUSH1 0x1 SWAP1 SWAP2 ADD SWAP1 DUP5 ADD PUSH2 0x8B6 JUMP JUMPDEST POP DUP6 DUP3 LT ISZERO PUSH2 0x8F3 JUMPI DUP8 DUP6 ADD MLOAD PUSH1 0x0 NOT PUSH1 0x3 DUP9 SWAP1 SHL PUSH1 0xF8 AND SHR NOT AND DUP2 SSTORE JUMPDEST POP POP POP POP POP PUSH1 0x1 SWAP1 DUP2 SHL ADD SWAP1 SSTORE POP JUMP JUMPDEST PUSH1 0x60 DUP2 MSTORE DUP4 PUSH1 0x60 DUP3 ADD MSTORE DUP4 DUP6 PUSH1 0x80 DUP4 ADD CALLDATACOPY PUSH1 0x0 PUSH1 0x80 DUP6 DUP4 ADD ADD MSTORE PUSH1 0x0 PUSH1 0x80 PUSH1 0x1F NOT PUSH1 0x1F DUP8 ADD AND DUP4 ADD ADD SWAP1 POP DUP4 PUSH1 0x20 DUP4 ADD MSTORE DUP3 PUSH1 0x40 DUP4 ADD MSTORE SWAP6 SWAP5 POP POP POP POP POP JUMP JUMPDEST PUSH4 0x4E487B71 PUSH1 0xE0 SHL PUSH1 0x0 MSTORE PUSH1 0x32 PUSH1 0x4 MSTORE PUSH1 0x24 PUSH1 0x0 REVERT JUMPDEST PUSH4 0x4E487B71 PUSH1 0xE0 SHL PUSH1 0x0 MSTORE PUSH1 0x11 PUSH1 0x4 MSTORE PUSH1 0x24 PUSH1 0x0 REVERT JUMPDEST DUP2 DUP2 SUB DUP2 DUP2 GT ISZERO PUSH2 0x982 JUMPI PUSH2 0x982 PUSH2 0x959 JUMP JUMPDEST SWAP3 SWAP2 POP POP JUMP JUMPDEST DUP1 DUP3 MUL DUP2 ISZERO DUP3 DUP3 DIV DUP5 EQ OR PUSH2 0x982 JUMPI PUSH2 0x982 PUSH2 0x959 JUMP JUMPDEST DUP1 DUP3 ADD DUP1 DUP3 GT ISZERO PUSH2 0x982 JUMPI PUSH2 0x982 PUSH2 0x959 JUMP JUMPDEST PUSH1 0xFF DUP2 DUP2 AND DUP4 DUP3 AND MUL SWAP1 DUP2 AND SWAP1 DUP2 DUP2 EQ PUSH2 0x9CE JUMPI PUSH2 0x9CE PUSH2 0x959 JUMP JUMPDEST POP SWAP3 SWAP2 POP POP JUMP JUMPDEST PUSH1 0xFF DUP2 DUP2 AND DUP4 DUP3 AND ADD SWAP1 DUP2 GT ISZERO PUSH2 0x982 JUMPI PUSH2 0x982 PUSH2 0x959 JUMP JUMPDEST PUSH1 0x0 PUSH1 0x1 DUP3 ADD PUSH2 0xA00 JUMPI PUSH2 0xA00 PUSH2 0x959 JUMP JUMPDEST POP PUSH1 0x1 ADD SWAP1 JUMP JUMPDEST PUSH1 0xFF DUP3 DUP2 AND DUP3 DUP3 AND SUB SWAP1 DUP2 GT ISZERO PUSH2 0x982 JUMPI PUSH2 0x982 PUSH2 0x959 JUMP INVALID LOG2 PUSH5 0x6970667358 0x22 SLT KECCAK256 CALLVALUE PUSH28 0x2C8941411A83DC028F4158F9DF1C3907EF0101321328C0DA8139CEEC SUB CREATE PUSH5 0x736F6C6343 STOP ADDMOD EQ STOP CALLER "},"methodIdentifiers":{"getEventCount(address)":"f90d1776","getEvents(address)":"a4c8b6e3","logEvent(string,string)":"1e5bc728"}}}}}