{
  "_format": "hh-sol-artifact-1",
  "contractName": "WaultLedger",
  "sourceName": "contracts/WaultLedger.sol",
  "abi": [
    {
      "anonymous": false,
      "inputs": [
        {
          "indexed": true,
          "internalType": "address",
          "name": "user",
          "type": "address"
        },
        {
          "indexed": false,
          "internalType": "string",
          "name": "eventType",
          "type": "string"
        },
        {
          "indexed": false,
          "internalType": "bytes32",
          "name": "dataHash",
          "type": "bytes32"
        },
        {
          "indexed": false,
          "internalType": "uint256",
          "name": "timestamp",
          "type": "uint256"
        }
      ],
      "name": "EventLogged",
      "type": "event"
    },
    {
      "inputs": [
        {
          "internalType": "address",
          "name": "user",
          "type": "address"
        }
      ],
      "name": "getEventCount",
      "outputs": [
        {
          "internalType": "uint256",
          "name": "",
          "type": "uint256"
        }
      ],
      "stateMutability": "view",
      "type": "function"
    },
    {
      "inputs": [
        {
          "internalType": "address",
          "name": "user",
          "type": "address"
        }
      ],
      "name": "getEvents",
      "outputs": [
        {
          "components": [
            {
              "internalType": "string",
              "name": "eventType",
              "type": "string"
            },
            {
              "internalType": "bytes32",
              "name": "dataHash",
              "type": "bytes32"
            },
            {
              "internalType": "uint256",
              "name": "timestamp",
              "type": "uint256"
            },
            {
              "internalType": "address",
              "name": "caller",
              "type": "address"
            }
          ],
          "internalType": "struct WaultLedger.Event[]",
          "name": "",
          "type": "tuple[]"
        }
      ],
      "stateMutability": "view",
      "type": "function"
    },
    {
      "inputs": [
        {
          "internalType": "string",
          "name": "eventType",
          "type": "string"
        },
        {
          "internalType": "string",
          "name": "dataHashStr",
          "type": "string"
        }
      ],
      "name": "logEvent",
      "outputs": [],
      "stateMutability": "nonpayable",
      "type": "function"
    }
  ],
  "bytecode": "0x608060405234801561001057600080fd5b50610a56806100206000396000f3fe608060405234801561001057600080fd5b50600436106100415760003560e01c80631e5bc72814610046578063a4c8b6e31461005b578063f90d177614610084575b600080fd5b61005961005436600461063d565b6100bb565b005b61006e6100693660046106a9565b610207565b60405161007b91906106d2565b60405180910390f35b6100ad6100923660046106a9565b6001600160a01b031660009081526020819052604090205490565b60405190815260200161007b565b60006100fc83838080601f01602080910402602001604051908101604052809392919081815260200183838082843760009201919091525061033992505050565b3360009081526020818152604091829020825160a0601f8a0184900490930281018301909352608083018881529394509282918990899081908501838280828437600092018290525093855250505060208083018690524260408401523360609093019290925283546001810185559381522081519192600402019081906101849082610843565b50602082015160018201556040808301516002830155606090920151600390910180546001600160a01b0319166001600160a01b039092169190911790555133907f58c0534367a48835919a0cb7ddb9c773bf1c206dcb7e7b4d13617548af764d28906101f8908890889086904290610903565b60405180910390a25050505050565b6001600160a01b038116600090815260208181526040808320805482518185028101850190935280835260609492939192909184015b8282101561032e5783829060005260206000209060040201604051806080016040529081600082018054610270906107ba565b80601f016020809104026020016040519081016040528092919081815260200182805461029c906107ba565b80156102e95780601f106102be576101008083540402835291602001916102e9565b820191906000526020600020905b8154815290600101906020018083116102cc57829003601f168201915b5050509183525050600182810154602080840191909152600284015460408401526003909301546001600160a01b03166060909201919091529183529201910161023d565b505050509050919050565b60008082905060008151604214801561037757508160008151811061036057610360610943565b6020910101516001600160f81b031916600360fc1b145b80156103d757508160018151811061039157610391610943565b6020910101516001600160f81b031916600f60fb1b14806103d75750816001815181106103c0576103c0610943565b6020910101516001600160f81b031916600b60fb1b145b156103e0575060025b8082516103ed919061096f565b6040146104375760405162461bcd60e51b8152602060048201526013602482015272092dcecc2d8d2c840d0c2e6d040d8cadccee8d606b1b60448201526064015b60405180910390fd5b60408051602080825281830190925260009160208201818036833701905050905060005b60208110156105245760006104a385610475846002610988565b61047f908761099f565b8151811061048f5761048f610943565b01602001516001600160f81b031916610531565b905060006104cb866104b6856002610988565b6104c0908861099f565b61047f90600161099f565b9050806104d98360106109b2565b6104e391906109d5565b60f81b8484815181106104f8576104f8610943565b60200101906001600160f81b031916908160001a9053505050808061051c906109ee565b91505061045b565b5060200151949350505050565b600060f882901c6030811080159061054d575060398160ff1611155b156105645761055d603082610a07565b9392505050565b60418160ff161015801561057c575060468160ff1611155b1561058c5761055d603782610a07565b60618160ff16101580156105a4575060668160ff1611155b156105b45761055d605782610a07565b60405162461bcd60e51b815260206004820152601560248201527424b73b30b634b2103432bc1031b430b930b1ba32b960591b604482015260640161042e565b60008083601f84011261060657600080fd5b50813567ffffffffffffffff81111561061e57600080fd5b60208301915083602082850101111561063657600080fd5b9250929050565b6000806000806040858703121561065357600080fd5b843567ffffffffffffffff8082111561066b57600080fd5b610677888389016105f4565b9096509450602087013591508082111561069057600080fd5b5061069d878288016105f4565b95989497509550505050565b6000602082840312156106bb57600080fd5b81356001600160a01b038116811461055d57600080fd5b60006020808301818452808551808352604092508286019150828160051b8701018488016000805b8481101561079557603f198a8503018652825160808151818752805180838901528592505b8083101561073d578183018c015188840160a00152918b019161071f565b60a092508583828a0101528b8401518c8901528a8401518b89015260609150818401519350610776828901856001600160a01b03169052565b988b0198601f01601f19169690960101945050918701916001016106fa565b50919998505050505050505050565b634e487b7160e01b600052604160045260246000fd5b600181811c908216806107ce57607f821691505b6020821081036107ee57634e487b7160e01b600052602260045260246000fd5b50919050565b601f82111561083e57600081815260208120601f850160051c8101602086101561081b5750805b601f850160051c820191505b8181101561083a57828155600101610827565b5050505b505050565b815167ffffffffffffffff81111561085d5761085d6107a4565b6108718161086b84546107ba565b846107f4565b602080601f8311600181146108a6576000841561088e5750858301515b600019600386901b1c1916600185901b17855561083a565b600085815260208120601f198616915b828110156108d5578886015182559484019460019091019084016108b6565b50858210156108f35787850151600019600388901b60f8161c191681555b5050505050600190811b01905550565b606081528360608201528385608083013760006080858301015260006080601f19601f870116830101905083602083015282604083015295945050505050565b634e487b7160e01b600052603260045260246000fd5b634e487b7160e01b600052601160045260246000fd5b8181038181111561098257610982610959565b92915050565b808202811582820484141761098257610982610959565b8082018082111561098257610982610959565b60ff81811683821602908116908181146109ce576109ce610959565b5092915050565b60ff818116838216019081111561098257610982610959565b600060018201610a0057610a00610959565b5060010190565b60ff82811682821603908111156109825761098261095956fea2646970667358221220347b2c8941411a83dc028f4158f9df1c3907ef0101321328c0da8139ceec03f064736f6c63430008140033",
  "linkReferences": {},
  "deployedLinkReferences": {}
}